{
    "contractName": "Raffle",
    "abi": [
        {
            "inputs": [
                {
                    "internalType": "uint256",
                    "name": "entranceFee",
                    "type": "uint256"
                },
                {
                    "internalType": "uint256",
                    "name": "interval",
                    "type": "uint256"
                },
                {
                    "internalType": "address",
                    "name": "vrfCoordinator",
                    "type": "address"
                },
                {
                    "internalType": "bytes32",
                    "name": "gasLane",
                    "type": "bytes32"
                },
                {
                    "internalType": "uint256",
                    "name": "subscriptionId",
                    "type": "uint256"
                },
                {
                    "internalType": "uint32",
                    "name": "callbackGasLimit",
                    "type": "uint32"
                }
            ],
            "stateMutability": "nonpayable",
            "type": "constructor"
        },
        {
            "inputs": [
                {
                    "internalType": "address",
                    "name": "have",
                    "type": "address"
                },
                {
                    "internalType": "address",
                    "name": "want",
                    "type": "address"
                }
            ],
            "name": "OnlyCoordinatorCanFulfill",
            "type": "error"
        },
        {
            "inputs": [
                {
                    "internalType": "address",
                    "name": "have",
                    "type": "address"
                },
                {
                    "internalType": "address",
                    "name": "owner",
                    "type": "address"
                },
                {
                    "internalType": "address",
                    "name": "coordinator",
                    "type": "address"
                }
            ],
            "name": "OnlyOwnerOrCoordinator",
            "type": "error"
        },
        {
            "inputs": [],
            "name": "Raffle__RaffleNotOpen",
            "type": "error"
        },
        {
            "inputs": [],
            "name": "Raffle__SendMoreEthToEnterRaffle",
            "type": "error"
        },
        {
            "inputs": [],
            "name": "Raffle__TransferFailed",
            "type": "error"
        },
        {
            "inputs": [
                {
                    "internalType": "uint256",
                    "name": "balance",
                    "type": "uint256"
                },
                {
                    "internalType": "uint256",
                    "name": "playersLength",
                    "type": "uint256"
                },
                {
                    "internalType": "enum Raffle.RaffleState",
                    "name": "raffleState",
                    "type": "uint8"
                }
            ],
            "name": "Raffle__UpkeepNotNeeded",
            "type": "error"
        },
        {
            "inputs": [],
            "name": "ZeroAddress",
            "type": "error"
        },
        {
            "anonymous": false,
            "inputs": [
                {
                    "indexed": false,
                    "internalType": "address",
                    "name": "vrfCoordinator",
                    "type": "address"
                }
            ],
            "name": "CoordinatorSet",
            "type": "event"
        },
        {
            "anonymous": false,
            "inputs": [
                {
                    "indexed": true,
                    "internalType": "address",
                    "name": "from",
                    "type": "address"
                },
                {
                    "indexed": true,
                    "internalType": "address",
                    "name": "to",
                    "type": "address"
                }
            ],
            "name": "OwnershipTransferRequested",
            "type": "event"
        },
        {
            "anonymous": false,
            "inputs": [
                {
                    "indexed": true,
                    "internalType": "address",
                    "name": "from",
                    "type": "address"
                },
                {
                    "indexed": true,
                    "internalType": "address",
                    "name": "to",
                    "type": "address"
                }
            ],
            "name": "OwnershipTransferred",
            "type": "event"
        },
        {
            "anonymous": false,
            "inputs": [
                {
                    "indexed": true,
                    "internalType": "address",
                    "name": "player",
                    "type": "address"
                }
            ],
            "name": "RaffleEntered",
            "type": "event"
        },
        {
            "anonymous": false,
            "inputs": [
                {
                    "indexed": true,
                    "internalType": "address",
                    "name": "winner",
                    "type": "address"
                }
            ],
            "name": "WinnerPicked",
            "type": "event"
        },
        {
            "inputs": [],
            "name": "acceptOwnership",
            "outputs": [],
            "stateMutability": "nonpayable",
            "type": "function"
        },
        {
            "inputs": [
                {
                    "internalType": "bytes",
                    "name": "",
                    "type": "bytes"
                }
            ],
            "name": "checkUpkeep",
            "outputs": [
                {
                    "internalType": "bool",
                    "name": "upkeepNeeded",
                    "type": "bool"
                },
                {
                    "internalType": "bytes",
                    "name": "",
                    "type": "bytes"
                }
            ],
            "stateMutability": "view",
            "type": "function"
        },
        {
            "inputs": [],
            "name": "enterRaffle",
            "outputs": [],
            "stateMutability": "payable",
            "type": "function"
        },
        {
            "inputs": [],
            "name": "owner",
            "outputs": [
                {
                    "internalType": "address",
                    "name": "",
                    "type": "address"
                }
            ],
            "stateMutability": "view",
            "type": "function"
        },
        {
            "inputs": [],
            "name": "performUpkeep",
            "outputs": [],
            "stateMutability": "nonpayable",
            "type": "function"
        },
        {
            "inputs": [
                {
                    "internalType": "uint256",
                    "name": "requestId",
                    "type": "uint256"
                },
                {
                    "internalType": "uint256[]",
                    "name": "randomWords",
                    "type": "uint256[]"
                }
            ],
            "name": "rawFulfillRandomWords",
            "outputs": [],
            "stateMutability": "nonpayable",
            "type": "function"
        },
        {
            "inputs": [],
            "name": "s_vrfCoordinator",
            "outputs": [
                {
                    "internalType": "contract IVRFCoordinatorV2Plus",
                    "name": "",
                    "type": "address"
                }
            ],
            "stateMutability": "view",
            "type": "function"
        },
        {
            "inputs": [
                {
                    "internalType": "address",
                    "name": "_vrfCoordinator",
                    "type": "address"
                }
            ],
            "name": "setCoordinator",
            "outputs": [],
            "stateMutability": "nonpayable",
            "type": "function"
        },
        {
            "inputs": [
                {
                    "internalType": "address",
                    "name": "to",
                    "type": "address"
                }
            ],
            "name": "transferOwnership",
            "outputs": [],
            "stateMutability": "nonpayable",
            "type": "function"
        }
    ],
    "bytecode": "6101203461016857601f610c6a38819003918201601f19168301916001600160401b0383118484101761016c5780849260c094604052833981010312610168578051602082015160408301516001600160a01b038116939291908490036101685760608301519160a060808501519401519463ffffffff86168603610168573315610123575f80546001600160a01b03191633179055801561011457600280546001600160a01b03191691909117905560805260a0524260045560c05260e052610100526005805460ff60a01b19169055604051610ae99081610181823960805181610723015260a05181818161037e0152610678015260c0518161045e015260e05181610485015261010051816104c00152f35b63d92e233d60e01b5f5260045ffd5b60405162461bcd60e51b815260206004820152601860248201527f43616e6e6f7420736574206f776e657220746f207a65726f00000000000000006044820152606490fd5b5f80fd5b634e487b7160e01b5f52604160045260245ffdfe60806040526004361015610011575f80fd5b5f3560e01c80631fe543e3146107df5780632cfcc539146107165780636e04ff0d146106005780636e4d243a1461034f57806379ba5097146102a45780638da5cb5b1461027d5780638ea98117146101a35780639eccacf61461017b5763f2fde38b1461007c575f80fd5b34610177576020366003190112610177576004356001600160a01b03811690819003610177575f546001600160a01b031633819003610139573382146100f457600180546001600160a01b031916831790557fed8889f560326eb138920d842192f0eb3dd22b4f139c87a2c57538e05bae12785f80a3005b60405162461bcd60e51b815260206004820152601760248201527f43616e6e6f74207472616e7366657220746f2073656c660000000000000000006044820152606490fd5b60405162461bcd60e51b815260206004820152601660248201527527b7363c9031b0b63630b1363290313c9037bbb732b960511b6044820152606490fd5b5f80fd5b34610177575f366003190112610177576002546040516001600160a01b039091168152602090f35b34610177576020366003190112610177576004356001600160a01b03811690819003610177575f546001600160a01b03163381141580610268575b61023e5750801561022f576020817fd1a6a14209a385a964d036e404cb5cfb71f4000cdb03c9366292430787261be6926bffffffffffffffffffffffff60a01b6002541617600255604051908152a1005b63d92e233d60e01b5f5260045ffd5b60025463061db9c160e01b5f908152336004526024929092526001600160a01b0316604452606490fd5b506002546001600160a01b03163314156101de565b34610177575f366003190112610177575f546040516001600160a01b039091168152602090f35b34610177575f366003190112610177576001546001600160a01b0381163303610311575f80546001600160a01b031980821633908117845593166001556001600160a01b0316907f8be0079c531659141344cd1fd0a4f28419497f9722a3daafe3b4186f6b6457e09080a3005b60405162461bcd60e51b815260206004820152601660248201527526bab9ba10313290383937b837b9b2b21037bbb732b960511b6044820152606490fd5b34610177575f3660031901126101775760205f60405161036f8382610a39565b5260045442034281116105ec577f0000000000000000000000000000000000000000000000000000000000000000111560ff60055460a01c169060028210156105d85760035490471515816105cf575b816105c7575b50806105be575b5f6040516103da8682610a39565b52156105a5576005805460ff60a01b1916600160a01b179055604051839080820167ffffffffffffffff811182821017610591576040525f81526040519063125fa26760e31b8383015251151560248201526024815261043b604482610a39565b6040519060c082019082821067ffffffffffffffff8311176105915783916040527f00000000000000000000000000000000000000000000000000000000000000008352818301907f000000000000000000000000000000000000000000000000000000000000000082526040840193600385525f84610552606084019463ffffffff7f000000000000000000000000000000000000000000000000000000000000000016865263ffffffff608086016001815260a087019283528160018060a01b03600254169861ffff6040519d8e9c8d9b8c9a634d8e1c2f60e11b8c5260048c01525160248b01525160448a01525116606488015251166084860152511660a48401525160c060c484015260e4830190610a77565b03925af180156105865761056257005b813d831161057f575b6105758183610a39565b8101031261017757005b503d61056b565b6040513d5f823e3d90fd5b634e487b7160e01b5f52604160045260245ffd5b4763ab3439a760e01b5f5260045260245260445260645ffd5b508015156103cc565b9050846103c5565b831591506103bf565b634e487b7160e01b5f52602160045260245ffd5b634e487b7160e01b5f52601160045260245ffd5b346101775760203660031901126101775760043567ffffffffffffffff811161017757366023820112156101775780600401359061063d82610a5b565b9161064b6040519384610a39565b8083523660248284010111610177575f92816024602094018483013701015260045442034281116105ec577f0000000000000000000000000000000000000000000000000000000000000000111560ff60055460a01c1660028110156105d8574715156003541515918361070d575b5082610705575b50816106fd575b50604051906106d8602083610a39565b5f82526106f960405192839215158352604060208401526040830190610a77565b0390f35b9050816106c8565b9150826106c1565b159250836106ba565b5f366003190112610177577f000000000000000000000000000000000000000000000000000000000000000034106107d05760ff60055460a01c1660028110156105d8576107c157600354600160401b8110156105915780600161077d9201600355610a9b565b81546001600160a01b0360039290921b91821b1916339182901b179091557f634f3211e3a4e43fee5a21ad9f87ca153b300fc78b1c557a2057dbe9c63bcb475f80a2005b63349289c560e21b5f5260045ffd5b6378d760e160e11b5f5260045ffd5b346101775760403660031901126101775760243567ffffffffffffffff8111610177573660238201121561017757806004013567ffffffffffffffff8111610177573660248260051b84010111610177576002546001600160a01b031633819003610a23575015610a0f5760035480156109fb57602461086192013506610a9b565b9054600580546001600160a81b03191660039390931b9190911c6001600160a01b031691821790556040516020919061089a8382610a39565b5f81525f36813780519067ffffffffffffffff821161059157600160401b82116105915783906003548360035580841061099a575b500160035f525f5b82811061095f57845f808080884260045560018060a01b03600554167f5b690ec4a06fe979403046eaeea5b3ce38524683c3001f662c8b5a829632f7df8380a247905af1903d15610959575f3d9161092e83610a5b565b9261093c6040519485610a39565b83523d92013e5b1561094a57005b63a1d04b3960e01b5f5260045ffd5b50610943565b81516001600160a01b03167fc2575a0e9e593c00f959f8c92f12db2869c3395a3b0502d05e2516446f71f85b820155908401906001016108d7565b7fc2575a0e9e593c00f959f8c92f12db2869c3395a3b0502d05e2516446f71f85b01837fc2575a0e9e593c00f959f8c92f12db2869c3395a3b0502d05e2516446f71f85b015b8181106109ed57506108cf565b5f81558693506001016109e0565b634e487b7160e01b5f52601260045260245ffd5b634e487b7160e01b5f52603260045260245ffd5b63073e64fd60e21b5f523360045260245260445ffd5b90601f8019910116810190811067ffffffffffffffff82111761059157604052565b67ffffffffffffffff811161059157601f01601f191660200190565b805180835260209291819084018484015e5f828201840152601f01601f1916010190565b600354811015610a0f5760035f5260205f2001905f9056fea2646970667358221220bee6213f583285a32f73f074146ccfe68ffdd12e0f953719fd0404453ce15ff764736f6c634300081e0033",
    "sourcePath": "/home/user/foundry-smart-contract-lottery-cu/src/daffle.sol",
    "compiler": {
        "name": "solc",
        "version": "0.8.30+commit.73712a01"
    },
    "functionHashes": {
        "acceptOwnership()": "79ba5097",
        "checkUpkeep(bytes)": "6e04ff0d",
        "enterRaffle()": "2cfcc539",
        "owner()": "8da5cb5b",
        "performUpkeep()": "6e4d243a",
        "rawFulfillRandomWords(uint256,uint256[])": "1fe543e3",
        "s_vrfCoordinator()": "9eccacf6",
        "setCoordinator(address)": "8ea98117",
        "transferOwnership(address)": "f2fde38b"
    },
    "gasEstimates": {
        "creation": {
            "codeDepositCost": "558600",
            "executionCost": "infinite",
            "totalCost": "infinite"
        },
        "external": {
            "acceptOwnership()": "50236",
            "checkUpkeep(bytes)": "infinite",
            "enterRaffle()": "infinite",
            "owner()": "2381",
            "performUpkeep()": "infinite",
            "rawFulfillRandomWords(uint256,uint256[])": "infinite",
            "s_vrfCoordinator()": "2426",
            "setCoordinator(address)": "29891",
            "transferOwnership(address)": "28256"
        },
        "internal": {
            "fulfillRandomWords(uint256,uint256[] calldata)": "infinite"
        }
    }
}